{
  "_format": "hh-sol-artifact-1",
  "contractName": "BetaMsm",
  "sourceName": "contracts/BetaMsm.sol",
  "abi": [
    {
      "anonymous": false,
      "inputs": [
        {
          "indexed": true,
          "internalType": "address",
          "name": "previousOwner",
          "type": "address"
        },
        {
          "indexed": true,
          "internalType": "address",
          "name": "newOwner",
          "type": "address"
        }
      ],
      "name": "OwnershipTransferred",
      "type": "event"
    },
    {
      "anonymous": false,
      "inputs": [
        {
          "indexed": true,
          "internalType": "uint64",
          "name": "userId",
          "type": "uint64"
        },
        {
          "indexed": false,
          "internalType": "string",
          "name": "signature",
          "type": "string"
        }
      ],
      "name": "UserValidated",
      "type": "event"
    },
    {
      "inputs": [],
      "name": "owner",
      "outputs": [
        {
          "internalType": "address",
          "name": "",
          "type": "address"
        }
      ],
      "stateMutability": "view",
      "type": "function"
    },
    {
      "inputs": [],
      "name": "renounceOwnership",
      "outputs": [],
      "stateMutability": "nonpayable",
      "type": "function"
    },
    {
      "inputs": [
        {
          "internalType": "address",
          "name": "newOwner",
          "type": "address"
        }
      ],
      "name": "transferOwnership",
      "outputs": [],
      "stateMutability": "nonpayable",
      "type": "function"
    },
    {
      "inputs": [
        {
          "internalType": "uint64",
          "name": "userId",
          "type": "uint64"
        },
        {
          "internalType": "string",
          "name": "signature",
          "type": "string"
        }
      ],
      "name": "userValidated",
      "outputs": [],
      "stateMutability": "nonpayable",
      "type": "function"
    }
  ],
  "bytecode": "0x608060405234801561001057600080fd5b5061002d61002261003260201b60201c565b61003a60201b60201c565b6100fe565b600033905090565b60008060009054906101000a900473ffffffffffffffffffffffffffffffffffffffff169050816000806101000a81548173ffffffffffffffffffffffffffffffffffffffff021916908373ffffffffffffffffffffffffffffffffffffffff1602179055508173ffffffffffffffffffffffffffffffffffffffff168173ffffffffffffffffffffffffffffffffffffffff167f8be0079c531659141344cd1fd0a4f28419497f9722a3daafe3b4186f6b6457e060405160405180910390a35050565b6107898061010d6000396000f3fe608060405234801561001057600080fd5b506004361061004c5760003560e01c80632f78e69414610051578063715018a61461006d5780638da5cb5b14610077578063f2fde38b14610095575b600080fd5b61006b600480360381019061006691906104a3565b6100b1565b005b6100756100ff565b005b61007f610113565b60405161008c9190610540565b60405180910390f35b6100af60048036038101906100aa9190610587565b61013c565b005b6100b96101bf565b8167ffffffffffffffff167fd44796efb881d36f016d6e0b7bf62e5e8bb31d18dcecb044cb2f8b901a210687826040516100f39190610633565b60405180910390a25050565b6101076101bf565b610111600061023d565b565b60008060009054906101000a900473ffffffffffffffffffffffffffffffffffffffff16905090565b6101446101bf565b600073ffffffffffffffffffffffffffffffffffffffff168173ffffffffffffffffffffffffffffffffffffffff16036101b3576040517f08c379a00000000000000000000000000000000000000000000000000000000081526004016101aa906106c7565b60405180910390fd5b6101bc8161023d565b50565b6101c7610301565b73ffffffffffffffffffffffffffffffffffffffff166101e5610113565b73ffffffffffffffffffffffffffffffffffffffff161461023b576040517f08c379a000000000000000000000000000000000000000000000000000000000815260040161023290610733565b60405180910390fd5b565b60008060009054906101000a900473ffffffffffffffffffffffffffffffffffffffff169050816000806101000a81548173ffffffffffffffffffffffffffffffffffffffff021916908373ffffffffffffffffffffffffffffffffffffffff1602179055508173ffffffffffffffffffffffffffffffffffffffff168173ffffffffffffffffffffffffffffffffffffffff167f8be0079c531659141344cd1fd0a4f28419497f9722a3daafe3b4186f6b6457e060405160405180910390a35050565b600033905090565b6000604051905090565b600080fd5b600080fd5b600067ffffffffffffffff82169050919050565b61033a8161031d565b811461034557600080fd5b50565b60008135905061035781610331565b92915050565b600080fd5b600080fd5b6000601f19601f8301169050919050565b7f4e487b7100000000000000000000000000000000000000000000000000000000600052604160045260246000fd5b6103b082610367565b810181811067ffffffffffffffff821117156103cf576103ce610378565b5b80604052505050565b60006103e2610309565b90506103ee82826103a7565b919050565b600067ffffffffffffffff82111561040e5761040d610378565b5b61041782610367565b9050602081019050919050565b82818337600083830152505050565b6000610446610441846103f3565b6103d8565b90508281526020810184848401111561046257610461610362565b5b61046d848285610424565b509392505050565b600082601f83011261048a5761048961035d565b5b813561049a848260208601610433565b91505092915050565b600080604083850312156104ba576104b9610313565b5b60006104c885828601610348565b925050602083013567ffffffffffffffff8111156104e9576104e8610318565b5b6104f585828601610475565b9150509250929050565b600073ffffffffffffffffffffffffffffffffffffffff82169050919050565b600061052a826104ff565b9050919050565b61053a8161051f565b82525050565b60006020820190506105556000830184610531565b92915050565b6105648161051f565b811461056f57600080fd5b50565b6000813590506105818161055b565b92915050565b60006020828403121561059d5761059c610313565b5b60006105ab84828501610572565b91505092915050565b600081519050919050565b600082825260208201905092915050565b60005b838110156105ee5780820151818401526020810190506105d3565b60008484015250505050565b6000610605826105b4565b61060f81856105bf565b935061061f8185602086016105d0565b61062881610367565b840191505092915050565b6000602082019050818103600083015261064d81846105fa565b905092915050565b7f4f776e61626c653a206e6577206f776e657220697320746865207a65726f206160008201527f6464726573730000000000000000000000000000000000000000000000000000602082015250565b60006106b16026836105bf565b91506106bc82610655565b604082019050919050565b600060208201905081810360008301526106e0816106a4565b9050919050565b7f4f776e61626c653a2063616c6c6572206973206e6f7420746865206f776e6572600082015250565b600061071d6020836105bf565b9150610728826106e7565b602082019050919050565b6000602082019050818103600083015261074c81610710565b905091905056fea2646970667358221220f2bd3371532b798436ff1714599603a71cf381427060c169d417e9bbaf1faa3064736f6c63430008130033",
  "linkReferences": {},
  "deployedLinkReferences": {}
}