{
  "_format": "hh-sol-artifact-1",
  "contractName": "BetaMsm",
  "sourceName": "contracts/BetaMsm.sol",
  "abi": [
    {
      "anonymous": false,
      "inputs": [
        {
          "indexed": true,
          "internalType": "address",
          "name": "previousOwner",
          "type": "address"
        },
        {
          "indexed": true,
          "internalType": "address",
          "name": "newOwner",
          "type": "address"
        }
      ],
      "name": "OwnershipTransferred",
      "type": "event"
    },
    {
      "anonymous": false,
      "inputs": [
        {
          "indexed": true,
          "internalType": "string",
          "name": "userId",
          "type": "string"
        },
        {
          "indexed": false,
          "internalType": "string",
          "name": "signature",
          "type": "string"
        }
      ],
      "name": "UserValidated",
      "type": "event"
    },
    {
      "inputs": [],
      "name": "owner",
      "outputs": [
        {
          "internalType": "address",
          "name": "",
          "type": "address"
        }
      ],
      "stateMutability": "view",
      "type": "function"
    },
    {
      "inputs": [],
      "name": "renounceOwnership",
      "outputs": [],
      "stateMutability": "nonpayable",
      "type": "function"
    },
    {
      "inputs": [
        {
          "internalType": "address",
          "name": "newOwner",
          "type": "address"
        }
      ],
      "name": "transferOwnership",
      "outputs": [],
      "stateMutability": "nonpayable",
      "type": "function"
    },
    {
      "inputs": [
        {
          "internalType": "string",
          "name": "userId",
          "type": "string"
        },
        {
          "internalType": "string",
          "name": "signature",
          "type": "string"
        }
      ],
      "name": "userValidated",
      "outputs": [],
      "stateMutability": "nonpayable",
      "type": "function"
    }
  ],
  "bytecode": "0x608060405234801561001057600080fd5b5061002d61002261003260201b60201c565b61003a60201b60201c565b6100fe565b600033905090565b60008060009054906101000a900473ffffffffffffffffffffffffffffffffffffffff169050816000806101000a81548173ffffffffffffffffffffffffffffffffffffffff021916908373ffffffffffffffffffffffffffffffffffffffff1602179055508173ffffffffffffffffffffffffffffffffffffffff168173ffffffffffffffffffffffffffffffffffffffff167f8be0079c531659141344cd1fd0a4f28419497f9722a3daafe3b4186f6b6457e060405160405180910390a35050565b6107c38061010d6000396000f3fe608060405234801561001057600080fd5b506004361061004c5760003560e01c806311a74ab614610051578063715018a61461006d5780638da5cb5b14610077578063f2fde38b14610095575b600080fd5b61006b6004803603810190610066919061046e565b6100b1565b005b61007561010a565b005b61007f61011e565b60405161008c9190610527565b60405180910390f35b6100af60048036038101906100aa919061056e565b610147565b005b6100b96101ca565b816040516100c7919061060c565b60405180910390207f938f547397c3063896022f579e05cc43476c9efb4681b7a602a2e9f5b7ec6b21826040516100fe919061066d565b60405180910390a25050565b6101126101ca565b61011c6000610248565b565b60008060009054906101000a900473ffffffffffffffffffffffffffffffffffffffff16905090565b61014f6101ca565b600073ffffffffffffffffffffffffffffffffffffffff168173ffffffffffffffffffffffffffffffffffffffff16036101be576040517f08c379a00000000000000000000000000000000000000000000000000000000081526004016101b590610701565b60405180910390fd5b6101c781610248565b50565b6101d261030c565b73ffffffffffffffffffffffffffffffffffffffff166101f061011e565b73ffffffffffffffffffffffffffffffffffffffff1614610246576040517f08c379a000000000000000000000000000000000000000000000000000000000815260040161023d9061076d565b60405180910390fd5b565b60008060009054906101000a900473ffffffffffffffffffffffffffffffffffffffff169050816000806101000a81548173ffffffffffffffffffffffffffffffffffffffff021916908373ffffffffffffffffffffffffffffffffffffffff1602179055508173ffffffffffffffffffffffffffffffffffffffff168173ffffffffffffffffffffffffffffffffffffffff167f8be0079c531659141344cd1fd0a4f28419497f9722a3daafe3b4186f6b6457e060405160405180910390a35050565b600033905090565b6000604051905090565b600080fd5b600080fd5b600080fd5b600080fd5b6000601f19601f8301169050919050565b7f4e487b7100000000000000000000000000000000000000000000000000000000600052604160045260246000fd5b61037b82610332565b810181811067ffffffffffffffff8211171561039a57610399610343565b5b80604052505050565b60006103ad610314565b90506103b98282610372565b919050565b600067ffffffffffffffff8211156103d9576103d8610343565b5b6103e282610332565b9050602081019050919050565b82818337600083830152505050565b600061041161040c846103be565b6103a3565b90508281526020810184848401111561042d5761042c61032d565b5b6104388482856103ef565b509392505050565b600082601f83011261045557610454610328565b5b81356104658482602086016103fe565b91505092915050565b600080604083850312156104855761048461031e565b5b600083013567ffffffffffffffff8111156104a3576104a2610323565b5b6104af85828601610440565b925050602083013567ffffffffffffffff8111156104d0576104cf610323565b5b6104dc85828601610440565b9150509250929050565b600073ffffffffffffffffffffffffffffffffffffffff82169050919050565b6000610511826104e6565b9050919050565b61052181610506565b82525050565b600060208201905061053c6000830184610518565b92915050565b61054b81610506565b811461055657600080fd5b50565b60008135905061056881610542565b92915050565b6000602082840312156105845761058361031e565b5b600061059284828501610559565b91505092915050565b600081519050919050565b600081905092915050565b60005b838110156105cf5780820151818401526020810190506105b4565b60008484015250505050565b60006105e68261059b565b6105f081856105a6565b93506106008185602086016105b1565b80840191505092915050565b600061061882846105db565b915081905092915050565b600082825260208201905092915050565b600061063f8261059b565b6106498185610623565b93506106598185602086016105b1565b61066281610332565b840191505092915050565b600060208201905081810360008301526106878184610634565b905092915050565b7f4f776e61626c653a206e6577206f776e657220697320746865207a65726f206160008201527f6464726573730000000000000000000000000000000000000000000000000000602082015250565b60006106eb602683610623565b91506106f68261068f565b604082019050919050565b6000602082019050818103600083015261071a816106de565b9050919050565b7f4f776e61626c653a2063616c6c6572206973206e6f7420746865206f776e6572600082015250565b6000610757602083610623565b915061076282610721565b602082019050919050565b600060208201905081810360008301526107868161074a565b905091905056fea264697066735822122013993c96270bd2df3dddc1764d47c72cca04f5c3df0dcbf08dde61309f711e2864736f6c63430008130033",
  "linkReferences": {},
  "deployedLinkReferences": {}
}